:1000000057C1EA9551F04C2FB29BBC9AB299BC985B
:1000100000004A95C9F7EA95B1F74D2FB29BBC9AFB
:10002000B299BC98000000004A95C1F70895EA957E
:1000300059F04C2F000000000000000000000000FC
:100040004A95C1F7EA95A9F74D2F0000000000007E
:1000500000000000000000004A95B9F708950895D7
:100060000095BB98E4E0CDDF18E0079510F0BB9A4F
:1000700008F4BB98E4E0C5DF1A95B9F7BB9AE4E051
:10008000C0DFE4E0BEDF08950095B399FECFB39BD7
:10009000FECFE6E0CCDF18E0079508F020F4B39936
:1000A00006C008940895B39B02C008940895E4E044
:1000B000BEDF1A9589F7C698C59AB39B02C008940B
:1000C0000895E5E0B4DF8894089500E0B399FECF89
:1000D000B39BFECFE1E0ABDFB39BFACFE1E0A7DF5C
:1000E000B39BF6CFE1E0A3DFB39BF2CFE3E09FDF6A
:1000F00018E0B39902C0889401C008940795E4E021
:1001000096DF1A95B1F70095089589988898919A85
:100110009098BF98C79ABE9ABD9ABB98C39ABC984C
:10012000BA98C298C49860E00895C3E7D7E6EFEFA5
:100130007EDFB399FECF0895B39BFECF80E090E0C1
:10014000000000000000B39B05C000009395C1F7BC
:100150008395F8CF082E192E06C00000000000007D
:10016000B39907C000009395C1F78395C1F7089430
:100170000895282E392E06C0000000000000B39B11
:1001800007C000009395C1F78395C1F708940895BF
:10019000482E592E00C086959795C69AC5988030EE
:1001A00011F408940895803210F008940895C698C8
:1001B000C59898508040C0E0803011F4993020F00C
:1001C00099508040C395F8CFE4E031DF8FEFB399C9
:1001D00004C08A95E1F708940895E4E028DF8FEFE2
:1001E000B39B04C08A95E1F708940895E4E01FDF0B
:1001F0008FEFB39904C08A95E1F708940895E4E07D
:1002000016DF8FEFB39B04C08A95E1F70894089539
:10021000E4E00DDFB39953CFE4E009DFB3994FCFAA
:1002200088940895C3E7D7E6819B05C080990AC0EA
:10023000C69AC59810C0E1E0E4DEC69AC59A819BD3
:10024000FACF36C0E1E0DDDEC69AC59A8099FACFD2
:100250002FC0C69AC59839DF0335E1F41DD035DFCC
:100260000334C1F419D031DF0534A1F415D0C69898
:10027000C59A92988A9AC29AC398BB9805E4F0DE10
:1002800092988A98BC98BA98C298C498BB98E6E4A9
:10029000CEDEC8CF01D0DFCF003049F0603409F4A2
:1002A00060E0E199FECF6EBB0DBBE19A63950895C6
:0602B0002CDF3BDFB7CF9D
:00000001FF
